:020000040800F2
:1000000050050020010100088F150008EB0F0008C3
:100010008D15000899010008431700080000000032
:10002000000000000000000000000000ED160008C5
:100030009B0100080000000091150008EF16000861
:100040001B0100081B0100081B0100081B01000820
:100050001B0100081B0100081B0100081B01000810
:100060001B0100081B0100081B0100081B01000800
:100070001B0100081B0100081B0100081B010008F0
:100080001B0100081B0100081B0100081B010008E0
:100090001B0100081B0100081B0100081B010008D0
:1000A0001B0100081B0100081B0100081B010008C0
:1000B0001B0100081B0100081B0100081B010008B0
:1000C0001B0100081B0100081B0100081B010008A0
:1000D0001B0100081B0100081B0100081B01000890
:1000E0001B0100081B0100081B010008DFF80CD0F1
:1000F00000F02AF800480047A51B00085005002022
:100100000648804706480047FEE7FEE7FEE7FEE7B1
:10011000FEE7FEE7FEE7FEE7FEE7FEE74117000821
:10012000ED000008D2B201E000F8012B491EFBD21D
:1001300070470022F6E710B513460A4604461946F2
:10014000FFF7F0FF204610BD064C074D06E0E068C3
:1001500040F0010394E8070098471034AC42F6D30E
:10016000FFF7C8FF302000085020000870B50122BA
:10017000084D064694032146284600F016F93046FD
:1001800000F00CF821462846BDE87040002200F03F
:100190000CB9000000100140FEE7704770B504463E
:1001A00000F008F90546601C02D0044800780444B9
:1001B00000F000F9401BA042FAD370BD6C00002093
:1001C0002DE9F84FDFF8B891002409F1040A0AF18B
:1001D000040B23460F270BF1040EC9E00125A540AF
:1001E0002A40AA427DD1674ED1F804C0ACEB060884
:1001F000B44532D014DCBCF1030F3AD009DCBCF1B9
:10020000000F2AD0BCF1010F1CD0BCF1020F31D17C
:100210001DE0BCF1110F17D0BCF1120F2AD119E06B
:10022000B8F5881F19D006DCB8F5803F15D0B8F5B1
:10023000801F1FD111E0B8F5001F0ED0B8F5041FC4
:1002400018D10AE0CB6815E0CB681B1D12E0CB6823
:1002500008330FE0CB680C330CE08B682BB1012B1B
:100260004FF0080303D0456104E0042302E0056178
:1002700000E00023FF2A01D8064601E000F1040651
:100280004FEA840501D9A5F12005D6F8008007FAC8
:1002900005FC28EA0C0803FA05F548EA0508C6F843
:1002A00000804D68ED0062D5374DAE6946F001061D
:1002B000AE61AD6924F0030605F001050095334DEC
:1002C00006EB050CDCF80850A607360F07FA06F80F
:1002D00025EA0805DFF8B880404503D14FF0000853
:1002E00017E044E0DFF8AC80404502D14FF0010850
:1002F0000FE0DFF8A480404502D14FF0020808E08B
:10030000DFF89880404502D14FF0030801E04FF03C
:10031000040808FA06F848EA0508CCF808804D6891
:10032000D9F80060ED034D4601D5164300E0964331
:100330002E604D68DAF80060AD03554601D51643CE
:1003400000E096432E604D68DBF80060ED025D46EC
:1003500001D5164300E096432E604D68DEF800603C
:10036000AD02754601D5164300E096432E60641C2D
:100370000D682A46E5407FF431AFBDE8F88F0000F4
:100380000004014000001110001002400000014074
:1003900000080140000C0140001001400014014021
:1003A0008068084000D0012070470AB101617047A1
:1003B0000904FBE701488068704700006C000020DA
:1003C00070B5040025D094F83D00002520B984F8CC
:1003D0003C50204600F04EF9242084F83D0020686F
:1003E000016821F0010101602068016841F40041C9
:1003F00001602068016821F40041016000F088FA82
:100400004D4A6168914201D84C4900E04C4988420C
:1004100001D2012070BD4B492368B0FBF1F15E6849
:1004200026F03F060E435E606368934206D94FF4A0
:10043000967359434FF47A73B1FBF3F12368491C67
:100440001E6A26F03F06314319626168914210D856
:100450004900401EB0FBF1F2521CC2F30B02042A09
:1004600001D2042022E0B0FBF1F0401CC0F30B00ED
:100470001CE0A268F2B301EBC10303EB0116431EBB
:10048000B3FBF6F35B1C43F480431B0549D092B3E6
:1004900001EBC10202EB0111401EB0FBF1F0401C68
:1004A000C0F30B0040F4804040F400402168CA696A
:1004B0004CF6FF739A431043C861D4E90710014317
:1004C0002068026822F0C00211430160D4E90301F0
:1004D00001432068826848F2FF339A4311438160E8
:1004E000D4E9050108432168CA6822F0FF021043DD
:1004F000C86001E00EE016E02068016841F00101EB
:1005000001602564202084F83D00256384F83E5076
:10051000002070BD01EB4106431EB3FBF6F35B1CEC
:10052000B3E70120C2E701EB4101401EB0FBF1F04F
:10053000401CC0F30B00B7E7A086010080841E00BA
:1005400000093D0040420F002DE9F84F1F4690463C
:100550008A460446DDF82890FFF72CFF054694F8FC
:100560003D0020287FD119230122404920460095D3
:1005700000F0C8FD002876D194F83C00012872D024
:10058000012084F83C0020680168C90703D1016894
:1005900041F0010101602068016821F400610160FF
:1005A000212084F83D00102084F83E0000262664B7
:1005B000C4F824806785608D20852D48E0622B4635
:1005C0004A465146204600F029FD90B9206841690D
:1005D0008069009036E02A464946204600F011FE28
:1005E00050B1206C042804D12068016841F40071E6
:1005F00001600120BDE8F88F606A21680078086119
:10060000606A401C6062618D491E6185218D491EB2
:1006100089B2218522685369DB435B070BD451B152
:1006200000781061606A401C6062608D401E6085C9
:10063000208D401E20852A464946204600F03CFD7C
:100640000028CED1208D0028C5D154F83D0B01687B
:1006500041F400710160202004F81E09E6776677F6
:100660000020C7E7FFE70220C4E7000002001000F7
:100670000000FFFF10B586B00021009101910291AA
:10068000039100680F4988421AD10F4CA06940F0CD
:100690000800A061A069694600F008000490C0202D
:1006A000009012200190032003900848FFF788FD76
:1006B000E06940F40010E061E06900F4001004908B
:1006C00006B010BD0054004000100240000C014074
:1006D0000248816802781144816070476C000020F4
:1006E000074810B5016841F010010160032000F0D7
:1006F00067F8002000F006F800F024F8002010BD94
:100700000020024070B50D4D04464FF47A712878F0
:10071000B1FBF0F00A490968B1FBF0F000F051FCC0
:1007200048B9102C07D200222146501E00F028F8AC
:1007300000206C6070BD012070BD00006C000020C6
:10074000780000200C4808B5816941F00101816101
:10075000816901F001010091C16941F08051C161DD
:10076000C06900F0805000900448416821F0E061C9
:1007700041F00071416008BD0010024000000140DE
:10078000F0B40E4B1B680C46C3F30223C3F10705FC
:10079000042D00D90425191D072901D2002300E0EA
:1007A000DB1E012606FA05F1491E214099409E40B4
:1007B000761E16403143F0BC00F0D8BF0CED00E0CF
:1007C000064900F0070208684FF6FF03184040EAA8
:1007D0000220034A10430860704700000CED00E05F
:1007E0000000FA052DE9F0470F46050061D0434EA1
:1007F000306800F00700B84209D2306820F00700E6
:1008000038433060306800F00700B84251D12868A2
:100810003B4C810712D5400703D5606840F4E06087
:1008200060602878000703D5606840F4605060601D
:100830006068A96820F0F000084360602878C0076D
:1008400028D06868012810D02168022810D08907B4
:1008500000292EDA616821F0030101436160FFF78E
:10086000A9FD804641F288390DE021688903EFE750
:100870008901EDE7FFF79EFDA0EB0801494502D98C
:100880000320BDE8F0876068696800F00C00B0EBF9
:10089000810FEFD1306800F00700B8420BD9306803
:1008A00020F0070038433060306800F00700B8429D
:1008B00001D00120E5E72878400705D56068E968A0
:1008C00020F4E060084360602878000706D560687F
:1008D000296920F4605040EAC100606000F028F807
:1008E0006168084AC1F30311515CC84006490860B9
:1008F00006480068FFF706FF0020C2E7002002401C
:10090000001002401820000878000020700000202D
:100910000448054900684968044AC1F30221515C52
:10092000C8407047780000200010024028200008CE
:1009300012A185B00FC98DE80F0014A0144A0068F9
:1009400004905168134801F00C03042B10D0082BBD
:100950000ED1C1F38343C9031DF803000AD55168C2
:1009600004AAC1F34041515C0A4A5043B0FBF1F084
:1009700005B0704708494843FAE700000203040540
:10098000060708090A0B0C0D0E0F101001020000DB
:100990000010024000127A0000093D002DE9F84FD6
:1009A000040070D02078C04DC00749D06868C0F3FB
:1009B0008100012807D06868C0F38100022809D1AE
:1009C0006868C00306D52868800339D560680028A8
:1009D000E7D035E06068B0F5803F0BD010B1B0F5DE
:1009E000A02F11D0286820F480302860286820F4D7
:1009F000802002E0286840F480302860606890B170
:100A0000FFF7D8FC06460AE0286840F480202860FA
:100A1000F0E700BFFFF7CEFC801B642873D828687E
:100A20008003F7D50CE0FFF7C5FC064605E000BFE4
:100A3000FFF7C0FC801B6428F0D828688003F7D437
:100A400020789A4E80074FF001094FF0000839D501
:100A5000686810F00C0F07D06868C0F381000228A6
:100A600009D16868C00306D42868800714D52069B6
:100A7000012808D110E02069B0B1C6F80090FFF756
:100A800099FC074605E00AE1FFF794FCC01B022829
:100A9000C4D828688007F7D52868616920F0F80075
:100AA00040EAC10028600DE0C6F80080FFF782FC34
:100AB000074604E0FFF77EFCC01B022823D8286805
:100AC0008007F7D4207800072CD57948A169D9B1DF
:100AD000C0F80090FFF76EFC074604E0FFF76AFCE1
:100AE000C01B02280FD8686A8007F7D571484FF4F9
:100AF000FA510068B0FBF1F0009000BF0098411E71
:100B00000091FAD20EE080E0C0F80080FFF752FCBE
:100B1000074604E0FFF74EFCC01B022875D8686A40
:100B20008007F7D42078400760D5E8690027C00027
:100B300008D4E86940F08050E861E869012700F0D6
:100B4000805000905C480168C90513D40168834651
:100B500041F480710160FFF72DFC824606E000BF82
:100B6000FFF728FCA0EB0A0064284ED8DBF8000051
:100B7000C005F5D5E06801280AD008B1052813D0D2
:100B8000286A20F001002862286A20F0040002E0B0
:100B9000286A40F001002862E06841F2883B98B181
:100BA000FFF708FC82460BE0286A40F00400286248
:100BB000EEE700BFFFF7FEFBA0EB0A0159455AD84C
:100BC000286A8007F6D50CE0FFF7F4FB824605E0C3
:100BD000FFF7F0FBA0EB0A0159454CD8286A8007C3
:100BE000F6D41FB1E86920F08050E861E06988B36D
:100BF0006968C1F38101022944D00228C6F86080E7
:100C000004D0FFF7D7FB044638E034E0FFF7D2FB0F
:100C1000074604E0FFF7CEFBC01B02282BD828684C
:100C20008001F7D4206AB0F5803F05D16868A168DB
:100C300020F4003008436860D4E90801084369687B
:100C400021F4741108436860C6F86090FFF7B2FBA6
:100C5000044606E025E000BFFFF7ACFB001B0228BE
:100C600009D828688001F7D51BE000BFFFF7A2FB79
:100C7000001B022802D90320BDE8F88F28688001F4
:100C8000F4D40EE00128F7D06868226A00F48031BD
:100C9000914204D1616A00F47010884201D00120B1
:100CA000EAE70020E8E700000010024000004242AE
:100CB00080044242780000200070004070B50400BB
:100CC00009D0606A002540B125616561A56294F88C
:100CD000510040B10CE0012070BD6068B0F5827F2A
:100CE000F4D0E561F2E784F85050204600F040F877
:100CF000022084F851002068016821F04001016061
:100D0000A088218900F4827001F404410843A1897C
:100D100001F400610843217C01F002010843217DB8
:100D200001F001010843218B01F400710843217F88
:100D300001F03801084394F8201001F080010843C5
:100D4000218D01F40051084321680860A069042145
:100D500001EA1040216848602068C16921F40061FF
:100D6000C1616565012084F85100002070BD00005C
:100D700030B585B000240094019402940394006877
:100D80001449884223D11448816941F4805181611A
:100D9000816901F480510491816941F0040181610C
:100DA00080690E4D00F004000490A0200090022005
:100DB00001900320039069462846FFF701FA40207E
:100DC000CDE90004694628460294FFF7F9F905B019
:100DD00030BD00000030014000100240000801401A
:100DE0002DE9F84F044690F8500000270A9E1D4652
:100DF00092468B464FF0010901280ED0012084F85D
:100E00005000FFF7D7FA804694F851006168012836
:100E10000CD0B1F5827F07D102E00220BDE8F88F47
:100E2000A16809B9042801D00227C2E0BBF1000F74
:100E300027D0BAF1000F24D01DB394F85100042834
:100E400002D0052084F8510000206065C4F838A065
:100E5000E587A587C4F830B0E586A5862064606480
:100E600020680168490603D4016841F0400101602F
:100E7000E068B0F5006F606805D0E8B3012D46D09A
:100E80007FE0012795E008B1012D39D1206B216861
:100E90000088C860206B801C2063E08E401EE086C6
:100EA0002EE02068816889070FD5E18E69B1B9F11C
:100EB000010F0AD1216B0988C160206B801C20635F
:100EC000E08E401EE0864FF0000920688168C90767
:100ED0000CD0E18F51B1C068A16B0880A06B801C61
:100EE000A063E08F401EE0874FF00109FFF762FA30
:100EF000A0EB0800B04200E009E001D3701C50D123
:100F0000E08E0028CDD1E08F0028CAD13FE0206BD1
:100F1000216800780873206B401C2063E08E401E1F
:100F2000E0862EE02068816889070FD5E18E69B1DF
:100F3000B9F1010F0AD1216B09780173206B401CB4
:100F40002063E08E401EE0864FF000092068816833
:100F5000C9070CD0E18F51B1C068A16B0870A06BBC
:100F6000401CA063E08F401EE0874FF00109FFF7AF
:100F700021FAA0EB0800B04202D3701C01D010E0AF
:100F80007EB1E08E0028CDD1E08F0028CAD1424644
:100F90003146204600F03EFB28B101272020606545
:100FA00007E0032705E0A06818B92068C1688068D9
:100FB0000090012084F85100002084F85000384649
:100FC0002CE710B5401EB0F1807F01D3012010BD89
:100FD0004FF0E02460610F21601700F0C7FB002094
:100FE000A06107202061002010BDFEE701684A696A
:100FF000D24352050FD46FF480624A61002140F859
:10100000301F202242738173026942F004020261A0
:10101000017301207047002070470000F8B50446B6
:10102000C06A1E460D461746082807D0012805D07D
:1010300010F5803F02D0206B122804D1206801688F
:1010400041F480710160134600224FF001112046E7
:10105000009600F057F840B120680068C00502D53E
:101060004FF4007020640320F8BD2069B0F5804F74
:101070000ED00620216800EAD51040F0F00008618B
:1010800033463A460B49204600F070F878B902E042
:1010900005F0FE0000E0E8B221680861054933462A
:1010A0003A46891F204600F061F80028DCD0012074
:1010B000F8BD00000800010070B516460D46044654
:1010C0000DE02046FFF792FF08B1012070BD681CBB
:1010D00005D0FFF76FF9801BA84207D835B120680B
:1010E0004069C0434007ECD4002070BD002044F8A4
:1010F000300F20216173A073216941F0200121612B
:101100002073E2E72DE9F0471E4690460D4604465F
:10111000C1F30747DDF8209008E0701C06D0FFF708
:1011200049F9A0EB0900B0420FD876B12068012F31
:1011300018D0806925EA00000004000C14D00021BA
:101140004145EAD00020BDE8F087002044F8300F88
:1011500020216173A073216941F020012161207376
:101160000120F0E74069E5E70121E9E72DE9F047D3
:101170009A4691460E46044600254FF02008C1F3DA
:10118000074725E020684069C043400514D4206823
:10119000016841F40071016021686FF4806048616A
:1011A000256384F83D8084F83E50206C40F00400B4
:1011B000206484F83C501FE0B9F1FF3F08D0FFF7EE
:1011C000F9F8A0EB0A0149450CD8B9F1000F09D094
:1011D0002068012F13D0806926EA00000004000C6B
:1011E0000BD0CFE744F8305F84F80D80A5732069F9
:1011F00040F02000206125730120BDE8F0874069A0
:10120000EAE770B516460D4604460DE02046FFF7A6
:10121000EDFE08B1012070BD681C05D0FFF7CAF8CB
:10122000801BA84207D835B120684069C04300063A
:10123000ECD4002070BD002044F8300F20216173F1
:10124000A073216941F0200121612073E2E710B50C
:10125000142000F059F8800705D10321BDE81040A3
:10126000142000F073B810BD7CB504460025294653
:101270000D2000F001F9932020702020607001A85B
:1012800023460090022219460C2000F06BF8010062
:1012900009D1225C401C5540C0B20428F9D3205C1F
:1012A000A84200D0022108467CBD70B50C46054618
:1012B00000F02AF820EA04012846BDE8704000F05A
:1012C000DBB810B500F03EF88D212A2000F0D4F8EC
:1012D0003E212B2000F0D0F81E212D2000F0CCF86C
:1012E00000212C2000F0C8F87021262000F0C4F85E
:1012F0004021152000F0C0F83D21112000F0BCF87D
:10130000BDE81040FFF7A3BF7E2101EA400040F096
:10131000800000F04FB97CB50C46054607210D2032
:1013200000F0AAF8257001A8234600900122194672
:101330000C2000F017F818B9BDF80410102900D0DF
:1013400002207CBD0F21012000F096B870B50C463C
:101350000546FFF7D9FF40EA04012846BDE8704082
:1013600000F08AB82DE9FF5F00270226DDF838A0DB
:1013700015468B468146B8460C2805D0B9F10E0FAC
:1013800005D11227102001E077273020804647F052
:101390008001022000F070F880210420FFF785FF13
:1013A00080210A20FFF7D2FF0021012000F064F81D
:1013B000002406E01BF80410092000F05DF8641C0E
:1013C000A4B2AC42F6D34946012000F055F8B9F179
:1013D0000C0F03D180210D20FFF7B8FF4FF4FA6501
:1013E0000420FFF791FF6D1E2D0404462D0C04D040
:1013F000E00702D114EA080FF2D080210D20FFF798
:1014000054FF35B10620FFF77FFF10F01B0F04D00B
:10141000022604B03046BDE8F09F00263C40E007BD
:1014200000D00126B9F10C0FF3D10A20FFF76CFFB1
:1014300004460C20FFF768FF10F007004FEAC401D4
:1014400004D008390844AAF8000001E0AAF8001006
:1014500024B1102C04D91024002503E00124FBE75B
:10146000002506E00920FFF74FFF039948556D1C42
:10147000ADB2A542F6D3CCE77E2202EA400000F0EE
:10148000B1B800002DE9F04385B000242D48009448
:10149000019402940394816941F010018161816992
:1014A00001F010010491816941F02001816181699D
:1014B00001F020010491816941F004018161816999
:1014C00001F004010491816941F0080181618069A2
:1014D000DFF8748000F008004FF4C045049000224B
:1014E00029464046FEF761FFDFF860904FF47167D0
:1014F000002239464846FEF758FF0095022601258E
:101500000396CDE9015469464046FEF759FE08208E
:101510008DE8310069464846FEF752FE0097039673
:10152000CDE9015469464846FEF74AFE4FF4704043
:10153000CDE90004694606480294FEF741FE05B075
:10154000BDE8F08300100240001001400008014097
:10155000000C01400C480B494FF4007201604FF43D
:101560008271416000218160C1600161C0E90512A2
:101570001822C0E90721416281620A21C162FFF796
:101580009DBB000000300140D0000020FEE7704706
:10159000704700000EB501238DF804000A2000906A
:1015A00002AA01A90248FFF71BFC9DF808000EBD26
:1015B000D000002070B50A4D0446002210212846B4
:1015C000FEF7F3FE2046FFF7E5FF0020FFF7E2FFFE
:1015D0000446012210212846FEF7E7FE204670BD92
:1015E0000008014070B50A4C0E4605460022102145
:1015F0002046FEF7DAFE2846FFF7CCFF3046FFF71D
:10160000C9FF2046BDE8704001221021FEF7CDBE83
:101610000008014038B50B460092044600228021A4
:1016200000F008F8002804D0606D40F020006065EC
:10163000032038BD2DE9F8431E46914688460446EE
:10164000089DFEF7B7FE401B351AFEF7B3FE0746AE
:1016500025480068C0F3CB30684338E0701C37D0B1
:10166000FEF7A8FEC01BA84203D215B1009860B3D4
:101670002CE02068416821F0E00141606068B0F52D
:10168000827F0BD1A068B0F5004F02D0B0F5806F1B
:1016900004D12068016821F040010160A06AB0F522
:1016A000005F09D12068016821F4005101602068C1
:1016B000016841F400510160012084F851000020CC
:1016C00084F850000320BDE8F8830025401E0090F8
:1016D0002068816838EA010004D000214945BDD165
:1016E0000020F0E70121F9E7780000207047FEF7BD
:1016F000EFBF30B58FB028216846FEF71AFD1421E0
:101700000AA8FEF716FD01210804CDE90010002407
:10171000029402250491CDE907504FF4E01009909E
:101720006846FFF73BF90F20CDE90A056802CDE9CD
:101730000C4002210AA80E94FFF754F80FB030BDF8
:101740007047FEE70FB4084B10B504A902AA03982E
:1017500000F02BF8044602A9002000F091F8204682
:1017600010BC5DF814FB0000811800080907090E81
:10177000002804DB00F1E02080F80014704700F03E
:101780000F0000F1E02080F8141D704702E008C847
:10179000121F08C1002AFAD170477047002001E0EB
:1017A00001C1121F002AFBD170472DE9F84F99465D
:1017B000924688460546002706E025280AD051466D
:1017C0004A4690476D1C7F1C28780028F5D1384682
:1017D000BDE8F88F002315F8011F18462E2915D1F2
:1017E00015F8011F04232A290DD06FF02F02297844
:1017F000A1F13004092C09D800EB800002EB400075
:1018000008446D1CF3E758F8040B6D1C2A78002A75
:10181000DDD0632A07D0732A0FD0104651464A46BE
:1018200090477F1C2AE018F8042B8DF80020002137
:101830008DF801106E46012103E058F8046B4FF05B
:10184000FF315A074FF0000401D409E0641C8442C0
:101850000BDA8C42FADB325D002AF7D105E0641C1A
:101860008C42FCDB305D0028F9D1274404E016F8F7
:10187000010B51464A469047641EF8D26D1CA3E7FF
:101880000A68531C0B6010707047000010B50F4CB5
:1018900008212046FEF784FD002816D11420FEF70B
:1018A0007DFC08212046FEF77BFD00280DD108496C
:1018B0000869401C0861042801D100200861082142
:1018C0002046FEF76DFD0028F9D010BD000801404C
:1018D000000000202DE9F05F5C4E4FF400682024EA
:1018E000002241463046FEF760FD0A20FEF756FC16
:1018F000574DA70239462846FEF752FD4FF480495E
:101900004FF4005A4FF4805B78B149462846FEF701
:1019100047FD60B151462846FEF742FD48B15946A1
:101920002846FEF73DFD30B106E0312404E03224C4
:1019300002E0332400E04124012241463046FEF714
:1019400034FD4FF48068002241463046FEF72DFDFD
:101950000A20FEF723FC39462846FEF721FD78B120
:1019600049462846FEF71CFD60B151462846FEF761
:1019700017FD48B159462846FEF712FD30B106E082
:10198000342404E0352402E0362400E0422401221D
:1019900041463046FEF709FD4FF4007800224146EB
:1019A0003046FEF702FD0A20FEF7F8FB39462846CE
:1019B000FEF7F6FC78B149462846FEF7F1FC60B127
:1019C00051462846FEF7ECFC48B159462846FEF73A
:1019D000E7FC30B106E0372404E0382402E0392483
:1019E00000E04324012241463046FEF7DEFC4FF47E
:1019F0008078002241463046FEF7D7FC0A20FEF7E9
:101A0000CDFB39462846FEF7CBFC78B1494628463F
:101A1000FEF7C6FC60B151462846FEF7C1FC48B14E
:101A200059462846FEF7BCFC30B106E02A2404E003
:101A3000302402E0232400E04424012241463046C1
:101A4000FEF7B3FC2046BDE8F09F0000000801400F
:101A5000000C01407FB503254FF47040002401269F
:101A600003958DE8510069461148FEF7A9FB4FF434
:101A70007060CDE90245CDE900060E4C694620466E
:101A8000FEF79EFB0122D1022046FEF78EFC0122CA
:101A900091022046FEF789FC012251022046FEF702
:101AA00084FC012211022046FEF77FFC7FBD00006E
:101AB000000C014000080140012000F029B810B5D9
:101AC000012805D0022806D0032806D0543105E0AD
:101AD0008031C8B205E0403100E01431C8B240F0B6
:101AE000800000F015F8BDE810400A20FEF756BB54
:101AF00010B5022000F00CF8282000F009F80C20A6
:101B000000F006F8BDE81040802000F001B80000A9
:101B10001CB500F0F00141F00C028DF8042041F0FA
:101B2000080100018DF8051040F00C018DF8061039
:101B300040F008008DF8070064200090042301AAFB
:101B40004E210248FEF700FD1CBD00007C00002075
:101B50001CB500F0F00141F00D028DF8042041F0B9
:101B6000090100018DF8051040F00D018DF80610F7
:101B700040F009008DF8070064200090042301AABA
:101B80004E210248FEF7E0FC1CBD00007C00002056
:101B900010B5044602E0641CFFF7DAFF2078002845
:101BA000F9D110BDFEF79CFDFFF7A3FDFFF76AFC1E
:101BB000E048DF4900260160DF49C0E901164FF423
:101BC0008041C0E9036146618661C6610662FEF735
:101BD000F7FBFFF7BFFCFFF774FBFFF73BFFFFF7D7
:101BE00087FFFFF769FF3220FEF7D8FADFF84CB322
:101BF0004FF4005A002251465846FEF7D6FB00210A
:101C00000120FFF75CFFCEA0FFF7C2FF00210220FA
:101C1000FFF755FFCFA0FFF7BBFF4FF4FA68404630
:101C2000FEF7BCFAD04DDFF80C932F1F09F1C00965
:101C3000B5F10504FFF72AFEFFF74CFE207020697E
:101C400068B900210120FFF73AFFC8A0FFF7A0FF05
:101C500000210220FFF733FFC9A0FFF799FF206999
:101C600001287DD10521FFF72AFFCAA0FFF790FFC9
:101C700000210220FFF723FFC9A0FFF789FF20788A
:101C800020285ED0A16991B9287004210220FFF7B5
:101C900016FF2878FFF75CFF4FF4FA70FEF77EFA24
:101CA00004210220FFF70BFFBFA0FFF771FFA0691F
:101CB000012813D12078687005210220FFF7FFFE6C
:101CC0006878FFF745FF4FF4FA70FEF767FA0521D1
:101CD0000220FFF7F4FEB4A0FFF75AFFA069022824
:101CE00013D12078A87006210220FFF7E8FEA8781B
:101CF000FFF72EFF4FF4FA70FEF750FA062102208C
:101D0000FFF7DDFEA8A0FFF743FFA069032815D168
:101D10002078E87007210220FFF7D1FEE878FFF76E
:101D200017FF4FF4FA70FEF739FA07210220FFF788
:101D3000C6FE9DA0FFF72CFF0120E060A069401CBB
:101D4000A061E06801284ED128783978884224D1F2
:101D500068787978884220D1A878B978884200E0FC
:101D600041E01AD1E878F978884216D10A21022098
:101D7000FFF7A5FE8DA0FFF70BFF4046FEF70EFA1A
:101D80000A210220FFF79BFE8AA0FFF701FF012234
:101D900051465846FEF709FB19E06069401C606136
:101DA000032803D140F6B830FEF7E0F90A210220FB
:101DB000FFF785FE81A0FFF7EBFE4046FEF7EEF948
:101DC0000A210220FFF77BFE7EA0FFF7E1FE4046DE
:101DD000FEF7E4F904210220FFF771FE69A0FFF786
:101DE000D7FEA661E660206902287FD10521012087
:101DF000FFF765FE75A0FFF7CBFE4E492620C031E8
:101E0000FFF789FA002871D14A48C030FFF72CFA51
:101E100000286BD199F800104846D42904D0A9298C
:101E200019D0A02941D04DE04178FA294AD18178D2
:101E3000342947D1C1782A2944D199F8040030289F
:101E400040D100210220FFF73AFE474A39481732B5
:101E500061A1AC3015E04178A12933D18178EF2917
:101E600030D1C1786E292DD199F80400892829D163
:101E700000210220FFF723FE3B4A2E482B3256A1B9
:101E8000AC30FFF75FFC2B48AC30FFF781FE0A2136
:101E90000220FFF714FE47A0FFF77AFE0122514609
:101EA0005846FEF782FA404615E04178222909D1CA
:101EB0008178952906D1C178322903D199F8040097
:101EC00025282BD000210220FFF7F9FD44A0FFF7C1
:101ED0005FFE4FF47A70FEF761F900210220FFF7F0
:101EE000EEFD43A000E001E0FFF752FE2069032869
:101EF0007FF4A0AE002251465846FEF756FA05215F
:101F00000120FFF7DCFD3FA0FFF742FE0A2102207F
:101F1000FFF7D5FD3EA0FFF73BFE8BE60021022038
:101F2000FFF7CDFD104A03483F322BA1AC30A8E7A4
:101F3000005400407C000020A086010000100140F9
:101F4000205F5F534D41525420444F4F525F5F20FA
:101F50000000000020205F5F484149204C4F4E4761
:101F60005F5F202000000000050000204D4F444529
:101F70003A5F50524553532042545F200000000006
:101F80002020202020202020202020202020202051
:101F9000000000005F5F4B45595041445F5F000007
:101FA00050573A20000000002A0000004F4B20202C
:101FB000200000004F50454E200000004552524F77
:101FC000520000005245545259000000205F5F52F9
:101FD0004649445F5F200000202025732020000038
:101FE000202043415244204552524F5220200000AD
:101FF00020202020202020202020202020202020E1
:102000002000000020474F4F442042594521000046
:10201000434C4F534500000000000000000000004A
:10202000010203040607080900000000010203047E
:1020300050200008000000207C0000008C170008E1
:10204000CC2000087C000020D40400009C1700086D
:10205000003131313120202020000000000000003C
:10206000000000000000000000000000504E534936
:102070004E480000000000000000000000000000CA
:102080004E514E474849410000000000000000004A
:10209000000000004E544849455500000000000073
:1020A0000000000000000000000000000000000030
:1020B000000000000000000000000000010000001F
:0C20C00010000000000000000024F400EC
:04000005080000ED02
:00000001FF
